S01B000053414D4537305F626C696E6B696E675F4C45442E737265639B
S21440000050084020A10140009D0140009D01400055
S2144000109D0140009D0140009D0140000000000001
S2144000200000000000000000000000009D014000AD
S2144000309D014000000000009D014000DD024000A0
S2144000409D0140009D0140009D0140009D014000F3
S2144000509D0140009D0140009D0140009D014000E3
S2144000609D014000000000009D0140009D014000B1
S2144000709D0140009D0140009D0140009D014000C3
S2144000809D0140009D0140009D0140009D014000B3
S2144000909D0140009D0140009D0140009D014000A3
S2144000A09D0140009D0140009D0140009D01400093
S2144000B09D0140009D0140009D0140009D01400083
S2144000C09D0140009D0140009D0140009D01400073
S2144000D0000000009D014000000000009D0140001F
S2144000E09D0140009D0140009D0140009D01400053
S2144000F09D0140009D0140009D0140009D01400043
S2144001009D0140009D0140009D0140009D01400032
S2144001109D014000000000000000000000000000BC
S2144001209D0140009D0140009D0140009D01400012
S2144001309D014000000000009D0140009D014000E0
S21440014010B5054C237833B9044B13B10448AFF3CC
S21440015000800123237010BD3004402000000000C2
S214400160A4044000084B10B51BB108480849AFF33B
S21440017000800848036803B910BD074B002BFBD02E
S214400180BDE81040184700BF00000000A40440002F
S21440019034044020A404400000000000FEE700BFF6
S2144001A008B5194B194A9A4203D0194B164A9A4237
S2144001B004D3184B184A9A4210D31BE012490A1D22
S2144001C0164B9B1A23F003030433104A134452F889
S2144001D0040B41F8040B9A42F9D1EAE7104B114A56
S2144001E0D21A22F003021A44043B002143F8041BAF
S2144001F09342FBD10C4A0D4B23F07F0393600C4B8C
S21440020098470C4B9847FEE700004020A404400067
S214400210300440204C04402030044020330440202A
S214400220340440204F04402000ED00E00000400031
S21440023035034000ED0240004FF4A062204B1A60A8
S214400240A3F5C0631B6A13F0807F07D11D4A1E4B7F
S2144002501A621A46936E13F0010FFBD01B4A1A4BD4
S2144002601A621A46936E13F4803FFBD0164A136BFD
S21440027023F0030343F001031363936E13F0080F58
S214400280FBD0134A104B9A621A46936E13F0020F35
S214400290FBD040F211120C4B1A631A46936E13F0C1
S2144002A0080FFBD04FF48972074B1A631A46936EB9
S2144002B013F0080FFBD0074A074B1A60704700BF81
S2144002C0000C0E400908370000060E4009083701AA
S2144002D0013F3120000E270700004020024A936B62
S2144002E083F480739363704700120E4008B50E4B3C
S2144002F098470E4B07221A606FF07F425A600C4BAD
S2144003001A6942F480721A611A6842F480721A605E
S2144003101A6E42F480721A66D3F8A02042F48072B5
S214400320C3F8A02062B6FEE73902400010E000E0C5
S21440033000120E4070B50F4E0F4D761BB61018BF0C
S214400340002405D0013455F8043B9847A642F9D11D
S2144003500A4E00F095F80A4D761BB61018BF0024DA
S21440036006D0013455F8043B9847A642F9D170BDF3
S21440037070BD00BF8C0440008C04400094044000D4
S2144003808C044000024B13B1024800F005B8704799
S21440039000000000A5034000014600200246034638
S2144003A000F016B838B5084B084DED1AAC1018BF1B
S2144003B0ED1805D0013C55F8043D9847002CF9D17E
S2144003C0BDE8384000F066B8A0044000A4044000F1
S2144003D02DE9F047264C06468846914625689A46BB
S2144003E0D5F84841002C3AD060681F2819DC411CDB
S2144003F086B104EB80050122022EC5F8889002FAE9
S21440040000F2D4F8883143EA0203C4F88831C5F8CC
S21440041008A11ED0831C6160002044F82380BDE8FC
S214400420F087144B03B34FF4C870AFF30080044614
S214400430D0B1D5F8483100270121036038466760BF
S214400440C5F84841C4F88871C4F88C71002EE1D0D4
S214400450CFE7D4F88C311A43C4F88C21DAE705F597
S214400460A674C5F84841BFE74FF0FF30BDE8F087B7
S2144004707C044000000000004300000008004020CC
S214400480F8B500BFF8BC08BC9E46704785034000E0
S21440049065014000F8B500BFF8BC08BC9E467047F2
S2084004A04101400091
S2144004A400093D000000000000000000F402402067
S2144004B45C034020C403402000000000000000000D
S2144004C400000000000000000000000000000000E3
S2144004D40000000000000000000000007804400017
S2144004E400000000000000000000000000000000C3
S2144004F400000000000000000000000000000000B3
S21440050400000000000000000000000000000000A2
S2144005140000000000000000000000000000000092
S2144005240000000000000000000000000000000082
S2144005340000000000000000000000000000000072
S2144005440000000000000000000000000000000062
S21440055401000000000000000E33CDAB34126DE6FF
S214400564ECDE05000B000000000000000000000068
S2144005740000000000000000000000000000000032
S2144005840000000000000000000000000000000022
S2144005940000000000000000000000000000000012
S2144005A40000000000000000000000000000000002
S804400000BB
