:020000040040BA
:10000000500A4020B1014000AD014000AD01400068
:10001000AD014000AD014000AD0140000000000016
:10002000000000000000000000000000AD014000E2
:10003000AD01400000000000AD014000AD014000F6
:10004000AD014000AD014000AD014000AD014000F8
:10005000AD014000AD014000AD014000AD014000E8
:10006000AD01400000000000AD014000AD014000C6
:10007000AD014000AD014000AD014000AD014000C8
:10008000AD014000AD014000AD014000AD014000B8
:10009000AD014000AD014000AD014000AD014000A8
:1000A000AD014000AD014000AD014000AD01400098
:1000B000AD014000AD014000AD014000AD01400088
:1000C000AD014000AD014000AD014000AD01400078
:1000D00000000000AD01400000000000AD01400044
:1000E000AD014000AD014000AD014000AD01400058
:1000F000AD01400045024000AD014000AD014000AF
:10010000AD014000AD014000AD014000AD01400037
:10011000AD014000AD014000000000000000000003
:10012000AD014000AD014000AD014000AD01400017
:10013000AD01400000000000AD014000AD014000F5
:1001400010B5054C237833B9044B13B10448AFF311
:1001500000800123237010BD300440200000000007
:100160003C0440000C4B43B10C480D4910B5AFF3B3
:1001700000800C48036823B910BD0A48036833B9EE
:100180007047094B002BF7D0BDE810401847064BCD
:10019000002BF5D0184700BF000000003C044000D1
:1001A000340440203C04400000000000FEE7000052
:1001B00008B5174B174A9A4210D0174B144A9A4267
:1001C0000CD2013B9B1A23F003030433134411495F
:1001D00051F8040B42F8040B9A42F9D10F4B104A24
:1001E0009A420AD2013B9B1A23F0030304331344BF
:1001F000002142F8041B9342FBD10A4A0A4B23F028
:100200007F039360094B9847094B9847FEE700BF6F
:10021000000040203C044000300440204C044020BA
:100220003004402000ED00E000004000CD0240001E
:10023000B1024000014A024B1A60704700093D00BC
:1002400000004020704700004FF0A0420D4B5A6064
:100250004FF40052A3F56063C3F8002103F5B053D7
:100260004FF4D6721A6048F2E322DA605A6842F418
:1002700000625A601A6A42F04E021A6240221A6004
:10028000704700BF00140E40084B5A6912F4007FFB
:1002900003D15A6912F4007FF7D06122034BDA616F
:1002A0001A46536913F4007FFBD07047001C0E40C0
:1002B00008B5034B9847034B9847034CA047FDE70D
:1002C00035024000490240008902400070B50F4EDF
:1002D0000F4D761BB61018BF002405D0013455F819
:1002E000043B9847A642F9D10A4E0B4D761B00F00D
:1002F00093F8B61018BF002406D0013455F8043B1B
:100300009847A642F9D170BD70BD00BF24044000DB
:10031000240440002C04400024044000024B13B18C
:10032000024800F005B87047000000003D0340009F
:10033000002301461A46184600F01AB838B50A4C90
:100340000A4D641BA4100AD004F18043013B05EB65
:100350008305013C55F804399847002CF9D1BDE8D4
:10036000384000F063B800BF3C044000380440004F
:100370002DE9F047254C2568D5F8484106468846C2
:1003800092469946C4B360681F2817DC431C76B1B7
:1003900004EB80050122C5F888A0D4F888118240BA
:1003A0001143022EC4F88811C5F808911ED00230FE
:1003B000636044F820800020BDE8F087144B03B34D
:1003C0004FF4C870AFF300800446D0B1D5F848317F
:1003D000002780E88800C5F8484138460123C4F862
:1003E0008871C4F88C71002EE1D0D1E7D4F88C115B
:1003F0000A43C4F88C21DAE705F5A674C5F848412C
:10040000C1E74FF0FF30BDE8F08700BF14044000A3
:100410000000000008004020F8B500BFF8BC08BC90
:100420009E4670471D03400065014000F8B500BFBF
:0C043000F8BC08BC9E467047410140002B
:10043C0000093D000000000000000000F402402014
:10044C005C034020C40340200000000000000000BA
:10045C000000000000000000000000000000000090
:10046C000000000000000000000000000000000080
:10047C000000000000000000000000000000000070
:10048C000000000000000000000000000000000060
:10049C000000000000000000000000000000000050
:1004AC000000000000000000000000000000000040
:1004BC000000000000000000000000000000000030
:1004CC000000000000000000000000000000000020
:1004DC000000000000000000000000000000000010
:1004EC0001000000000000000E33CDAB34126DE6AD
:1004FC00ECDE05000B000000000000000000000016
:10050C0000000000000000000000000000000000DF
:10051C0000000000000000000000000000000000CF
:10052C0000000000000000000000000000000000BF
:10053C0000000000000000000000000000000000AF
:0400000500400000B7
:00000001FF
