S01A000053414D5637315F53455249414C5F434F4D4D2E73726563C1
S214400000500A4020B1014000AD014000AD01400023
S214400010AD014000AD014000AD01400000000000D1
S214400020000000000000000000000000AD0140009D
S214400030AD01400000000000AD014000AD014000B1
S214400040AD014000AD014000AD014000AD014000B3
S214400050AD014000AD014000AD014000AD014000A3
S214400060AD01400000000000AD014000AD01400081
S214400070AD014000AD014000AD014000AD01400083
S214400080AD014000AD014000AD014000AD01400073
S214400090AD014000AD014000AD014000AD01400063
S2144000A0AD014000AD014000AD014000AD01400053
S2144000B0AD014000AD014000AD014000AD01400043
S2144000C0AD014000AD014000AD014000AD01400033
S2144000D000000000AD01400000000000AD014000FF
S2144000E0AD014000AD014000AD014000AD01400013
S2144000F0AD014000AD014000AD014000AD01400003
S214400100AD014000AD014000AD014000AD014000F2
S214400110AD014000AD0140000000000000000000BE
S214400120AD014000AD014000AD014000AD014000D2
S214400130AD01400000000000AD014000AD014000B0
S21440014010B5054C237833B9044B13B10448AFF3CC
S21440015000800123237010BD3004402000000000C2
S214400160480440000C4B43B10C480D4910B5AFF362
S21440017000800C48036823B910BD0A48036833B9A9
S2144001807047094B002BF7D0BDE810401847064B88
S214400190002BF5D0184700BF000000004804400080
S2144001A0340440204804400000000000FEE7000001
S2144001B008B5174B174A9A4210D0174B144A9A4222
S2144001C00CD2013B9B1A23F003030433134411491A
S2144001D051F8040B42F8040B9A42F9D10F4B104ADF
S2144001E09A420AD2013B9B1A23F00303043313447A
S2144001F0002142F8041B9342FBD10A4A0A4B23F0E3
S2144002007F039360094B9847094B9847FEE700BF2A
S2144002100000402048044000300440204C04402069
S2144002203004402000ED00E000004000D9024000CD
S214400230BD024000014A024B1A60704700093D006B
S21440024000004020114A536843F0A0435360A2F593
S2144002506062D2F8003143F40053C2F800310C4BD0
S2144002601A6842F4D6721A60D96848F2E3220A4302
S214400270DA605A6842F400625A601A6A42F04E02E5
S2144002801A621A6842F050021A60704700140E4014
S214400290001C0E40084B5A6912F4007F03D15A697D
S2144002A012F4007FF7D06122034BDA611A46536995
S2144002B013F4007FFBD07047001C0E4008B5034B7C
S2144002C09847034B9847034CA047FDE7350240004C
S2144002D0450240009502400070B50F4E0F4D761B0C
S2144002E0B61018BF002405D0013455F8043B984793
S2144002F0A642F9D10A4E0B4D761B00F093F8B61085
S21440030018BF002406D0013455F8043B9847A6424F
S214400310F9D170BD70BD00BF3004400030044000CD
S2144003203804400030044000024B13B1024800F04D
S21440033005B870470000000049034000002301460E
S2144003401A46184600F01AB838B50A4C0A4D641BCF
S214400350A4100AD004F18043013B05EB8305013C21
S21440036055F804399847002CF9D1BDE8384000F0DC
S21440037063B800BF48044000440440002DE9F047FD
S214400380254C2568D5F84841064688469246994603
S214400390C4B360681F2817DC431C76B104EB8005A5
S2144003A00122C5F888A0D4F8881182401143022E55
S2144003B0C4F88811C5F808911ED00230636044F82E
S2144003C020800020BDE8F087144B03B34FF4C8707C
S2144003D0AFF300800446D0B1D5F84831002780E816
S2144003E08800C5F8484138460123C4F88871C4F8E7
S2144003F08C71002EE1D0D1E7D4F88C110A43C4F8B2
S2144004008C21DAE705F5A674C5F84841C1E74FF0F8
S214400410FF30BDE8F08700BF200440000000000029
S21440042008004020F8B500BFF8BC08BC9E467047A0
S2144004302903400065014000F8B500BFF8BC08BC81
S20C4004409E4670474101400052
S21440044800093D000000000000000000F4024020C3
S2144004585C034020C4034020000000000000000069
S214400468000000000000000000000000000000003F
S214400478000000000000000000000000000000002F
S214400488000000000000000000000000000000001F
S214400498000000000000000000000000000000000F
S2144004A800000000000000000000000000000000FF
S2144004B800000000000000000000000000000000EF
S2144004C800000000000000000000000000000000DF
S2144004D800000000000000000000000000000000CF
S2144004E800000000000000000000000000000000BF
S2144004F801000000000000000E33CDAB34126DE65C
S214400508ECDE05000B0000000000000000000000C4
S214400518000000000000000000000000000000008E
S214400528000000000000000000000000000000007E
S214400538000000000000000000000000000000006E
S214400548000000000000000000000000000000005E
S804400000BB
