S01A000053414D5637315F53455249414C5F434F4D4D2E73726563C1
S214400000500A4020B1014000AD014000AD01400023
S214400010AD014000AD014000AD01400000000000D1
S214400020000000000000000000000000AD0140009D
S214400030AD01400000000000AD014000AD014000B1
S214400040AD014000AD014000AD014000AD014000B3
S214400050AD014000AD014000AD014000AD014000A3
S214400060AD01400000000000AD014000AD01400081
S214400070AD014000AD014000AD014000AD01400083
S214400080AD014000AD014000AD014000AD01400073
S214400090AD014000AD014000AD014000AD01400063
S2144000A0AD014000AD014000AD014000AD01400053
S2144000B0AD014000AD014000AD014000AD01400043
S2144000C0AD014000AD014000AD014000AD01400033
S2144000D000000000AD01400000000000AD014000FF
S2144000E0AD014000AD014000AD014000AD01400013
S2144000F0AD014000AD014000AD014000AD01400003
S214400100AD014000AD014000AD014000AD014000F2
S214400110AD014000AD0140000000000000000000BE
S214400120AD014000AD014000AD014000AD014000D2
S214400130AD01400000000000AD014000AD014000B0
S21440014010B5054C237833B9044B13B10448AFF3CC
S21440015000800123237010BD3004402000000000C2
S214400160100440000C4B43B10C480D4910B5AFF39A
S21440017000800C48036823B910BD0A48036833B9A9
S2144001807047094B002BF7D0BDE810401847064B88
S214400190002BF5D0184700BF0000000010044000B8
S2144001A0340440201004400000000000FEE7000039
S2144001B008B5174B174A9A4210D0174B144A9A4222
S2144001C00CD2013B9B1A23F003030433134411491A
S2144001D051F8040B42F8040B9A42F9D10F4B104ADF
S2144001E09A420AD2013B9B1A23F00303043313447A
S2144001F0002142F8041B9342FBD10A4A0A4B23F0E3
S2144002007F039360094B9847094B9847FEE700BF2A
S2144002100000402010044000300440204C044020A1
S2144002203004402000ED00E000004000A102400005
S21440023085024000014A024B1A60704700093D00A3
S21440024000004020084B1A6842F0AC021A605A6818
S21440025042F480525A601A6A42F04E021A621A6893
S21440026042F040021A607047001C0E406122044B68
S214400270DA611A46536913F0020FFBD0704700BF8D
S214400280001C0E4008B5034B9847034B9847034B5A
S2144002909847FEE735024000450240006D024000A8
S2144002A070B50F4E0F4D761BB61018BF002405D004
S2144002B0013455F8043B9847A642F9D10A4E0B4DF7
S2144002C0761B00F093F8B61018BF002406D0013411
S2144002D055F8043B9847A642F9D170BD70BD00BFA3
S2144002E0F8034000F803400000044000F8034000D4
S2144002F0024B13B1024800F005B8704700000000FA
S21440030011034000002301461A46184600F01AB86A
S21440031038B50A4C0A4D641BA4100AD004F1804339
S214400320013B05EB8305013C55F804399847002C02
S214400330F9D1BDE8384000F063B800BF1004400073
S2144003400C0440002DE9F047254C2568D5F8484177
S2144003500646884692469946C4B360681F2817DC0E
S214400360431C76B104EB80050122C5F888A0D4F87A
S214400370881182401143022EC4F88811C5F80891AE
S2144003801ED00230636044F820800020BDE8F0872D
S214400390144B03B34FF4C870AFF300800446D0B19B
S2144003A0D5F84831002780E88800C5F848413846E7
S2144003B00123C4F88871C4F88C71002EE1D0D1E7CF
S2144003C0D4F88C110A43C4F88C21DAE705F5A674F4
S2144003D0C5F84841C1E74FF0FF30BDE8F08700BFA1
S2144003E0E80340000000000008004020F8B500BFC9
S2144003F0F8BC08BC9E467047F102400065014000CC
S214400400F8B500BFF8BC08BC9E46704741014000A6
S21440041000093D000000000000000000F4024020FB
S2144004205C034020C40340200000000000000000A1
S2144004300000000000000000000000000000000077
S2144004400000000000000000000000000000000067
S2144004500000000000000000000000000000000057
S2144004600000000000000000000000000000000047
S2144004700000000000000000000000000000000037
S2144004800000000000000000000000000000000027
S2144004900000000000000000000000000000000017
S2144004A00000000000000000000000000000000007
S2144004B000000000000000000000000000000000F7
S2144004C001000000000000000E33CDAB34126DE694
S2144004D0ECDE05000B0000000000000000000000FD
S2144004E000000000000000000000000000000000C7
S2144004F000000000000000000000000000000000B7
S21440050000000000000000000000000000000000A6
S2144005100000000000000000000000000000000096
S804400000BB
