S012000053414D5637315F4C49422E737265633D
S214400000480A4020B1014000AD014000AD0140002B
S214400010AD014000AD014000AD01400000000000D1
S214400020000000000000000000000000AD0140009D
S214400030AD01400000000000AD0140003502400028
S214400040AD014000AD014000AD014000AD014000B3
S214400050AD014000AD014000AD014000AD014000A3
S214400060AD01400000000000AD014000AD01400081
S214400070AD014000AD014000AD014000AD01400083
S214400080AD014000AD014000AD014000AD01400073
S214400090AD014000AD014000AD014000AD01400063
S2144000A0AD014000AD014000AD014000AD01400053
S2144000B0AD014000AD014000AD014000AD01400043
S2144000C0AD014000AD014000AD014000AD01400033
S2144000D000000000AD01400000000000AD014000FF
S2144000E0AD014000AD014000AD014000AD01400013
S2144000F0AD014000AD014000AD014000AD01400003
S214400100AD014000AD014000AD014000AD014000F2
S214400110AD014000AD0140000000000000000000BE
S214400120AD014000AD014000AD014000AD014000D2
S214400130AD01400000000000AD014000AD014000B0
S21440014010B5054C237833B9044B13B10448AFF3CC
S21440015000800123237010BD2804402000000000CA
S214400160E80440000C4B43B10C480D4910B5AFF3C2
S21440017000800C48036823B910BD0A48036833B9A9
S2144001807047094B002BF7D0BDE810401847064B88
S214400190002BF5D0184700BF00000000E8044000E0
S2144001A02C044020E804400000000000FEE7000069
S2144001B008B5174B174A9A4210D0174B144A9A4222
S2144001C00CD2013B9B1A23F003030433134411491A
S2144001D051F8040B42F8040B9A42F9D10F4B104ADF
S2144001E09A420AD2013B9B1A23F00303043313447A
S2144001F0002142F8041B9342FBD10A4A0A4B23F0E3
S2144002007F039360094B9847094B9847FEE700BF2A
S21440021000004020E80440002804402044044020D9
S2144002202804402000ED00E0000040007903400034
S21440023045024000024A936B83F400739363704711
S21440024000120E4008B50E4B98470E4B07221A6018
S2144002506FF07F425A600C4B1A6942F400721A6182
S2144002601A6842F400721A601A6E42F400721A66F5
S214400270D3F8A02042F40072C3F8A02062B6FEE78E
S2144002806D03400010E000E000120E4010B431480C
S214400290036A314AD2F8E44030492143C2F8E410B8
S2144002A0116841F4A061116023F0700343F45C13BD
S2144002B003620246936E13F4003FFBD0254A116A50
S2144002C0274B0B431362936E13F0010FFBD0214A6A
S2144002D0116A244B0B431362936E13F4803FFBD09A
S2144002E01C4A536A13F4803FFBD01A4B5B6A43B9EF
S2144002F0184A116A1B4B0B431362936E13F4803FEC
S214400300FBD0144B996A184A0A439A621A6B1A63CE
S2144003101A46936E13F0080FFBD00E4A136B43F445
S21440032080731363936E13F0080FFBD0094A136B68
S21440033023F001031363936E13F0080FFBD0054AB6
S214400340136B43F002031363936E13F0080FFBD056
S21440035010BC704700060E40000C0E400143464558
S21440036001FF370000003701013F182008B5014B58
S214400370984708BD8D02400070B50F4E0F4D761B56
S214400380B61018BF002405D0013455F8043B9847F2
S214400390A642F9D10A4E0B4D761B00F093F8B610E4
S2144003A018BF002406D0013455F8043B9847A642AF
S2144003B0F9D170BD70BD00BFD0044000D0044000ED
S2144003C0D8044000D0044000024B13B1024800F06D
S2144003D005B8704700000000E903400000230146CE
S2144003E01A46184600F01AB838B50A4C0A4D641B2F
S2144003F0A4100AD004F18043013B05EB8305013C81
S21440040055F804399847002CF9D1BDE8384000F03B
S21440041063B800BFE8044000E40440002DE9F0471C
S214400420254C2568D5F84841064688469246994662
S214400430C4B360681F2817DC431C76B104EB800504
S2144004400122C5F888A0D4F8881182401143022EB4
S214400450C4F88811C5F808911ED00230636044F88D
S21440046020800020BDE8F087144B03B34FF4C870DB
S214400470AFF300800446D0B1D5F84831002780E875
S2144004808800C5F8484138460123C4F88871C4F846
S2144004908C71002EE1D0D1E7D4F88C110A43C4F811
S2144004A08C21DAE705F5A674C5F84841C1E74FF058
S2144004B0FF30BDE8F08700BFC004400000000000E9
S2144004C000004020F8B500BFF8BC08BC9E46704708
S2144004D0C903400065014000F8B500BFF8BC08BC41
S20C4004E09E46704741014000B2
S2144004E800000000EC02402054034020BC0340209B
S2144004F800000000000000000000000000000000AF
S214400508000000000000000000000000000000009E
S214400518000000000000000000000000000000008E
S214400528000000000000000000000000000000007E
S214400538000000000000000000000000000000006E
S214400548000000000000000000000000000000005E
S214400558000000000000000000000000000000004E
S214400568000000000000000000000000000000003E
S214400578000000000000000000000000000000002E
S214400588000000000000000001000000000000001D
S2144005980E33CDAB34126DE6ECDE05000B000000E2
S2144005A800000000000000000000000000000000FE
S2144005B800000000000000000000000000000000EE
S2144005C800000000000000000000000000000000DE
S2144005D800000000000000000000000000000000CE
S804400000BB
