:020000040040BA
:10000000500A4020B1014000AD014000AD01400068
:10001000AD014000AD014000AD0140000000000016
:10002000000000000000000000000000AD014000E2
:10003000AD01400000000000AD014000450240005D
:10004000AD014000AD014000AD014000AD014000F8
:10005000AD014000AD014000AD014000AD014000E8
:10006000AD01400000000000AD014000AD014000C6
:10007000AD014000AD014000AD014000AD014000C8
:10008000AD014000AD014000AD014000AD014000B8
:10009000AD014000AD014000AD014000AD014000A8
:1000A000AD014000AD014000AD014000AD01400098
:1000B000AD014000AD014000AD014000AD01400088
:1000C000AD014000AD014000AD014000AD01400078
:1000D00000000000AD01400000000000AD01400044
:1000E000AD014000AD014000AD014000AD01400058
:1000F000AD014000AD014000AD014000AD01400048
:10010000AD014000AD014000AD014000AD01400037
:10011000AD014000AD014000000000000000000003
:10012000AD014000AD014000AD014000AD01400017
:10013000AD01400000000000AD014000AD014000F5
:1001400010B5054C237833B9044B13B10448AFF311
:1001500000800123237010BD300440200000000007
:100160000C0440000C4B43B10C480D4910B5AFF3E3
:1001700000800C48036823B910BD0A48036833B9EE
:100180007047094B002BF7D0BDE810401847064BCD
:10019000002BF5D0184700BF000000000C04400001
:1001A000340440200C04400000000000FEE7000082
:1001B00008B5174B174A9A4210D0174B144A9A4267
:1001C0000CD2013B9B1A23F003030433134411495F
:1001D00051F8040B42F8040B9A42F9D10F4B104A24
:1001E0009A420AD2013B9B1A23F0030304331344BF
:1001F000002142F8041B9342FBD10A4A0A4B23F028
:100200007F039360094B9847094B9847FEE700BF6F
:10021000000040200C044000300440204C044020EA
:100220003004402000ED00E0000040009D0240004E
:1002300055024000014A024B1A60704700093D0018
:1002400000004020024A936B83F40073936370476D
:1002500000120E4008B50E4B98470E4B07221A604D
:100260006FF07F425A600C4B1A6942F400721A61B7
:100270001A6842F400721A601A6E42F400721A662A
:10028000D3F8A02042F40072C3F8A02062B6FEE7C3
:100290003502400010E000E000120E4070B50F4E35
:1002A0000F4D761BB61018BF002405D0013455F849
:1002B000043B9847A642F9D10A4E0B4D761B00F03D
:1002C00093F8B61018BF002406D0013455F8043B4B
:1002D0009847A642F9D170BD70BD00BFF40340003D
:1002E000F4034000FC034000F4034000024B13B150
:1002F000024800F005B87047000000000D03400000
:10030000002301461A46184600F01AB838B50A4CC0
:100310000A4D641BA4100AD004F18043013B05EB95
:100320008305013C55F804399847002CF9D1BDE804
:10033000384000F063B800BF0C04400008044000DF
:100340002DE9F047254C2568D5F8484106468846F2
:1003500092469946C4B360681F2817DC431C76B1E7
:1003600004EB80050122C5F888A0D4F888118240EA
:100370001143022EC4F88811C5F808911ED002302E
:10038000636044F820800020BDE8F087144B03B37D
:100390004FF4C870AFF300800446D0B1D5F84831AF
:1003A000002780E88800C5F8484138460123C4F892
:1003B0008871C4F88C71002EE1D0D1E7D4F88C118B
:1003C0000A43C4F88C21DAE705F5A674C5F848415C
:1003D000C1E74FF0FF30BDE8F08700BFE403400005
:1003E0000000000008004020F8B500BFF8BC08BCC1
:1003F0009E467047ED02400065014000F8B500BF21
:0C040000F8BC08BC9E467047410140005B
:10040C0000093D000000000000000000F402402044
:10041C005C034020C40340200000000000000000EA
:10042C0000000000000000000000000000000000C0
:10043C0000000000000000000000000000000000B0
:10044C0000000000000000000000000000000000A0
:10045C000000000000000000000000000000000090
:10046C000000000000000000000000000000000080
:10047C000000000000000000000000000000000070
:10048C000000000000000000000000000000000060
:10049C000000000000000000000000000000000050
:1004AC000000000000000000000000000000000040
:1004BC0001000000000000000E33CDAB34126DE6DD
:1004CC00ECDE05000B000000000000000000000046
:1004DC000000000000000000000000000000000010
:1004EC000000000000000000000000000000000000
:1004FC0000000000000000000000000000000000F0
:10050C0000000000000000000000000000000000DF
:0400000500400000B7
:00000001FF
